{
    "_format": "hh-sol-artifact-1",
    "contractName": "PPshift",
    "sourceName": "contracts/ppshift.sol",
    "abi": [
        {
            "inputs": [
                {
                    "internalType": "address",
                    "name": "_usdcToken",
                    "type": "address"
                }
            ],
            "stateMutability": "nonpayable",
            "type": "constructor"
        },
        {
            "anonymous": false,
            "inputs": [
                {
                    "indexed": false,
                    "internalType": "uint256",
                    "name": "usdcAmount",
                    "type": "uint256"
                },
                {
                    "indexed": true,
                    "internalType": "address",
                    "name": "depositor",
                    "type": "address"
                },
                {
                    "indexed": true,
                    "internalType": "address",
                    "name": "recipient",
                    "type": "address"
                },
                {
                    "indexed": false,
                    "internalType": "bytes",
                    "name": "proof",
                    "type": "bytes"
                }
            ],
            "name": "DepositProcessed",
            "type": "event"
        },
        {
            "inputs": [
                {
                    "internalType": "uint256",
                    "name": "usdcAmount",
                    "type": "uint256"
                },
                {
                    "internalType": "address",
                    "name": "recipient",
                    "type": "address"
                },
                {
                    "internalType": "bytes",
                    "name": "proof",
                    "type": "bytes"
                }
            ],
            "name": "depositUSDC",
            "outputs": [],
            "stateMutability": "nonpayable",
            "type": "function"
        },
        {
            "inputs": [],
            "name": "owner",
            "outputs": [
                {
                    "internalType": "address",
                    "name": "",
                    "type": "address"
                }
            ],
            "stateMutability": "view",
            "type": "function"
        },
        {
            "inputs": [],
            "name": "usdcToken",
            "outputs": [
                {
                    "internalType": "contract IERC20",
                    "name": "",
                    "type": "address"
                }
            ],
            "stateMutability": "view",
            "type": "function"
        },
        {
            "inputs": [],
            "name": "withdrawFunds",
            "outputs": [],
            "stateMutability": "nonpayable",
            "type": "function"
        }
    ],
    "bytecode": "0x6080346100c557601f61058c38819003918201601f19168301916001600160401b038311848410176100ca578084926020946040528339810103126100c557516001600160a01b038116908190036100c55780156100805760018060a01b03193381600054161760005560015416176001556040516104ab90816100e18239f35b60405162461bcd60e51b815260206004820152601a60248201527f496e76616c6964205553444320746f6b656e20616464726573730000000000006044820152606490fd5b600080fd5b634e487b7160e01b600052604160045260246000fdfe608060408181526004918236101561001657600080fd5b600092833560e01c9182630f5d032a1461022c5750816311eac8551461020357816324600fc31461007b5750638da5cb5b1461005157600080fd5b34610077578160031936011261007757905490516001600160a01b039091168152602090f35b5080fd5b9050346101ff57826003193601126101ff5782546001600160a01b039081169190338390036101cb5760015416918351916370a0823160e01b835230818401526020938484602481845afa9384156101c157879461018e575b50831561015457849291876044928851968795869463a9059cbb60e01b865285015260248401525af1918215610147576101179350849261011a575b5050610432565b80f35b6101399250803d10610140575b61013181836103dd565b810190610415565b3880610110565b503d610127565b50505051903d90823e3d90fd5b855162461bcd60e51b815280830186905260146024820152734e6f2066756e647320746f20776974686472617760601b6044820152606490fd5b9093508481813d83116101ba575b6101a681836103dd565b810103126101b6575192386100d4565b8680fd5b503d61019c565b86513d89823e3d90fd5b835162461bcd60e51b8152602081840152600e60248201526d139bdd08185d5d1a1bdc9a5e995960921b6044820152606490fd5b8280fd5b50503461007757816003193601126100775760015490516001600160a01b039091168152602090f35b9150346103d95760603660031901126103d9576001600160a01b03602480358281169584359492939290918790036103d5576044359267ffffffffffffffff968785116103d157366023860112156103d157848301359788116103d157368689870101116103d15786156103a05750871561036a57889160646020926001541691855194859384926323b872dd60e01b84523390840152308a8401528a60448401525af1908115610360577f8aebb8c2d296f96eb177ce036b175fb955ea7b44939d57dda57fb74b2206678195949261031088959386938c91610341575b50610432565b805195865280602087015285015201606083013784606084830101526060813394601f80199101168101030190a380f35b61035a915060203d6020116101405761013181836103dd565b3861030a565b82513d8a823e3d90fd5b506011846020606494519362461bcd60e51b855284015282015270125b9d985b1a59081c9958da5c1a595b9d607a1b6044820152fd5b62461bcd60e51b8152602083820152600e868201526d125b9d985b1a5908185b5bdd5b9d60921b6044820152606490fd5b8980fd5b8780fd5b8380fd5b90601f8019910116810190811067ffffffffffffffff8211176103ff57604052565b634e487b7160e01b600052604160045260246000fd5b9081602091031261042d5751801515810361042d5790565b600080fd5b1561043957565b60405162461bcd60e51b81526020600482015260146024820152731554d110c81d1c985b9cd9995c8819985a5b195960621b6044820152606490fdfea26469706673582212206462c7429d9b32e0df3531d44229f8f0d72287ab5a4d859aea226dd386d451bb64736f6c63430008180033",
    "linkReferences": {},
    "deployedLinkReferences": {}
}