{
  "_format": "hh-sol-artifact-1",
  "contractName": "SwapWithFeeGuard",
  "sourceName": "contracts/FDCFeeGuard.sol",
  "abi": [
    {
      "inputs": [
        {
          "internalType": "contract ISwapRouter",
          "name": "_router",
          "type": "address"
        }
      ],
      "stateMutability": "nonpayable",
      "type": "constructor"
    },
    {
      "inputs": [],
      "name": "router",
      "outputs": [
        {
          "internalType": "contract ISwapRouter",
          "name": "",
          "type": "address"
        }
      ],
      "stateMutability": "view",
      "type": "function"
    },
    {
      "inputs": [
        {
          "internalType": "address",
          "name": "tokenIn",
          "type": "address"
        },
        {
          "internalType": "address",
          "name": "tokenOut",
          "type": "address"
        },
        {
          "internalType": "uint256",
          "name": "amountIn",
          "type": "uint256"
        },
        {
          "internalType": "uint256",
          "name": "minOut",
          "type": "uint256"
        },
        {
          "components": [
            {
              "internalType": "bytes32[]",
              "name": "merkleProof",
              "type": "bytes32[]"
            },
            {
              "components": [
                {
                  "internalType": "bytes32",
                  "name": "attestationType",
                  "type": "bytes32"
                },
                {
                  "internalType": "bytes32",
                  "name": "sourceId",
                  "type": "bytes32"
                },
                {
                  "internalType": "uint64",
                  "name": "votingRound",
                  "type": "uint64"
                },
                {
                  "internalType": "uint64",
                  "name": "lowestUsedTimestamp",
                  "type": "uint64"
                },
                {
                  "components": [
                    {
                      "internalType": "bytes32",
                      "name": "transactionId",
                      "type": "bytes32"
                    },
                    {
                      "internalType": "uint256",
                      "name": "inUtxo",
                      "type": "uint256"
                    },
                    {
                      "internalType": "uint256",
                      "name": "utxo",
                      "type": "uint256"
                    }
                  ],
                  "internalType": "struct IPayment.RequestBody",
                  "name": "requestBody",
                  "type": "tuple"
                },
                {
                  "components": [
                    {
                      "internalType": "uint64",
                      "name": "blockNumber",
                      "type": "uint64"
                    },
                    {
                      "internalType": "uint64",
                      "name": "blockTimestamp",
                      "type": "uint64"
                    },
                    {
                      "internalType": "bytes32",
                      "name": "sourceAddressHash",
                      "type": "bytes32"
                    },
                    {
                      "internalType": "bytes32",
                      "name": "sourceAddressesRoot",
                      "type": "bytes32"
                    },
                    {
                      "internalType": "bytes32",
                      "name": "receivingAddressHash",
                      "type": "bytes32"
                    },
                    {
                      "internalType": "bytes32",
                      "name": "intendedReceivingAddressHash",
                      "type": "bytes32"
                    },
                    {
                      "internalType": "int256",
                      "name": "spentAmount",
                      "type": "int256"
                    },
                    {
                      "internalType": "int256",
                      "name": "intendedSpentAmount",
                      "type": "int256"
                    },
                    {
                      "internalType": "int256",
                      "name": "receivedAmount",
                      "type": "int256"
                    },
                    {
                      "internalType": "int256",
                      "name": "intendedReceivedAmount",
                      "type": "int256"
                    },
                    {
                      "internalType": "bytes32",
                      "name": "standardPaymentReference",
                      "type": "bytes32"
                    },
                    {
                      "internalType": "bool",
                      "name": "oneToOne",
                      "type": "bool"
                    },
                    {
                      "internalType": "uint8",
                      "name": "status",
                      "type": "uint8"
                    }
                  ],
                  "internalType": "struct IPayment.ResponseBody",
                  "name": "responseBody",
                  "type": "tuple"
                }
              ],
              "internalType": "struct IPayment.Response",
              "name": "data",
              "type": "tuple"
            }
          ],
          "internalType": "struct IPayment.Proof",
          "name": "paymentProof",
          "type": "tuple"
        },
        {
          "internalType": "uint256",
          "name": "feeAmount",
          "type": "uint256"
        }
      ],
      "name": "swapWithFee",
      "outputs": [],
      "stateMutability": "nonpayable",
      "type": "function"
    }
  ],
  "bytecode": "0x60a060405234801561001057600080fd5b50604051610fa1380380610fa1833981810160405281019061003291906100e1565b8073ffffffffffffffffffffffffffffffffffffffff1660808173ffffffffffffffffffffffffffffffffffffffff16815250505061010e565b600080fd5b600073ffffffffffffffffffffffffffffffffffffffff82169050919050565b600061009c82610071565b9050919050565b60006100ae82610091565b9050919050565b6100be816100a3565b81146100c957600080fd5b50565b6000815190506100db816100b5565b92915050565b6000602082840312156100f7576100f661006c565b5b6000610105848285016100cc565b91505092915050565b608051610e6a6101376000396000818161015d015281816101e001526102790152610e6a6000f3fe608060405234801561001057600080fd5b50600436106100365760003560e01c80639521c9841461003b578063f887ea4014610057575b600080fd5b610055600480360381019061005091906104bd565b610075565b005b61005f610277565b60405161006c91906105c5565b60405180910390f35b61007f828261029b565b6100be576040517f08c379a00000000000000000000000000000000000000000000000000000000081526004016100b59061063d565b60405180910390fd5b8573ffffffffffffffffffffffffffffffffffffffff166323b872dd3330876040518463ffffffff1660e01b81526004016100fb9392919061067b565b6020604051808303816000875af115801561011a573d6000803e3d6000fd5b505050506040513d601f19601f8201168201806040525081019061013e91906106ea565b508573ffffffffffffffffffffffffffffffffffffffff1663095ea7b37f0000000000000000000000000000000000000000000000000000000000000000866040518363ffffffff1660e01b815260040161019a929190610717565b6020604051808303816000875af11580156101b9573d6000803e3d6000fd5b505050506040513d601f19601f820116820180604052508101906101dd91906106ea565b507f000000000000000000000000000000000000000000000000000000000000000073ffffffffffffffffffffffffffffffffffffffff1663fe029156878787876040518563ffffffff1660e01b815260040161023d9493929190610740565b600060405180830381600087803b15801561025757600080fd5b505af115801561026b573d6000803e3d6000fd5b50505050505050505050565b7f000000000000000000000000000000000000000000000000000000000000000081565b60006102a5610341565b73ffffffffffffffffffffffffffffffffffffffff1663a7a37975846040518263ffffffff1660e01b81526004016102dd9190610d3a565b602060405180830381865afa1580156102fa573d6000803e3d6000fd5b505050506040513d601f19601f8201168201806040525081019061031e91906106ea565b61032b576000905061033b565b818360200160e00160c001351490505b92915050565b600073ad67fe66660fb8dfe9d6b1b4240d8650e30f601973ffffffffffffffffffffffffffffffffffffffff1663159354a260405160200161038290610da8565b604051602081830303815290604052805190602001206040518263ffffffff1660e01b81526004016103b49190610dd7565b602060405180830381865afa1580156103d1573d6000803e3d6000fd5b505050506040513d601f19601f820116820180604052508101906103f59190610e07565b905090565b600080fd5b600080fd5b600073ffffffffffffffffffffffffffffffffffffffff82169050919050565b600061042f82610404565b9050919050565b61043f81610424565b811461044a57600080fd5b50565b60008135905061045c81610436565b92915050565b6000819050919050565b61047581610462565b811461048057600080fd5b50565b6000813590506104928161046c565b92915050565b600080fd5b60006102a082840312156104b4576104b3610498565b5b81905092915050565b60008060008060008060c087890312156104da576104d96103fa565b5b60006104e889828a0161044d565b96505060206104f989828a0161044d565b955050604061050a89828a01610483565b945050606061051b89828a01610483565b935050608087013567ffffffffffffffff81111561053c5761053b6103ff565b5b61054889828a0161049d565b92505060a061055989828a01610483565b9150509295509295509295565b6000819050919050565b600061058b61058661058184610404565b610566565b610404565b9050919050565b600061059d82610570565b9050919050565b60006105af82610592565b9050919050565b6105bf816105a4565b82525050565b60006020820190506105da60008301846105b6565b92915050565b600082825260208201905092915050565b7f4665652070726f6f6620696e76616c6964000000000000000000000000000000600082015250565b60006106276011836105e0565b9150610632826105f1565b602082019050919050565b600060208201905081810360008301526106568161061a565b9050919050565b61066681610424565b82525050565b61067581610462565b82525050565b6000606082019050610690600083018661065d565b61069d602083018561065d565b6106aa604083018461066c565b949350505050565b60008115159050919050565b6106c7816106b2565b81146106d257600080fd5b50565b6000815190506106e4816106be565b92915050565b600060208284031215610700576106ff6103fa565b5b600061070e848285016106d5565b91505092915050565b600060408201905061072c600083018561065d565b610739602083018461066c565b9392505050565b6000608082019050610755600083018761065d565b610762602083018661065d565b61076f604083018561066c565b61077c606083018461066c565b95945050505050565b600080fd5b600080fd5b600080fd5b600080833560016020038436030381126107b1576107b061078f565b5b83810192508235915060208301925067ffffffffffffffff8211156107d9576107d8610785565b5b6020820236038313156107ef576107ee61078a565b5b509250929050565b600082825260208201905092915050565b600080fd5b82818337505050565b600061082283856107f7565b93507f07ffffffffffffffffffffffffffffffffffffffffffffffffffffffffffffff83111561085557610854610808565b5b60208302925061086683858461080d565b82840190509392505050565b600082905092915050565b6000819050919050565b6108908161087d565b811461089b57600080fd5b50565b6000813590506108ad81610887565b92915050565b60006108c2602084018461089e565b905092915050565b6108d38161087d565b82525050565b600067ffffffffffffffff82169050919050565b6108f6816108d9565b811461090157600080fd5b50565b600081359050610913816108ed565b92915050565b60006109286020840184610904565b905092915050565b610939816108d9565b82525050565b600082905092915050565b60006109596020840184610483565b905092915050565b61096a81610462565b82525050565b6060820161098160008301836108b3565b61098e60008501826108ca565b5061099c602083018361094a565b6109a96020850182610961565b506109b7604083018361094a565b6109c46040850182610961565b50505050565b600082905092915050565b6000819050919050565b6109e8816109d5565b81146109f357600080fd5b50565b600081359050610a05816109df565b92915050565b6000610a1a60208401846109f6565b905092915050565b610a2b816109d5565b82525050565b600081359050610a40816106be565b92915050565b6000610a556020840184610a31565b905092915050565b610a66816106b2565b82525050565b600060ff82169050919050565b610a8281610a6c565b8114610a8d57600080fd5b50565b600081359050610a9f81610a79565b92915050565b6000610ab46020840184610a90565b905092915050565b610ac581610a6c565b82525050565b6101a08201610add6000830183610919565b610aea6000850182610930565b50610af86020830183610919565b610b056020850182610930565b50610b1360408301836108b3565b610b2060408501826108ca565b50610b2e60608301836108b3565b610b3b60608501826108ca565b50610b4960808301836108b3565b610b5660808501826108ca565b50610b6460a08301836108b3565b610b7160a08501826108ca565b50610b7f60c0830183610a0b565b610b8c60c0850182610a22565b50610b9a60e0830183610a0b565b610ba760e0850182610a22565b50610bb6610100830183610a0b565b610bc4610100850182610a22565b50610bd3610120830183610a0b565b610be1610120850182610a22565b50610bf06101408301836108b3565b610bfe6101408501826108ca565b50610c0d610160830183610a46565b610c1b610160850182610a5d565b50610c2a610180830183610aa5565b610c38610180850182610abc565b50505050565b6102808201610c5060008301836108b3565b610c5d60008501826108ca565b50610c6b60208301836108b3565b610c7860208501826108ca565b50610c866040830183610919565b610c936040850182610930565b50610ca16060830183610919565b610cae6060850182610930565b50610cbc608083018361093f565b610cc96080850182610970565b50610cd760e08301836109ca565b610ce460e0850182610acb565b50505050565b60006102a08301610cfe6000840184610794565b8583036000870152610d11838284610816565b92505050610d226020840184610872565b610d2f6020860182610c3e565b508091505092915050565b60006020820190508181036000830152610d548184610cea565b905092915050565b7f466463566572696669636174696f6e0000000000000000000000000000000000600082015250565b6000610d92600f836105e0565b9150610d9d82610d5c565b602082019050919050565b60006020820190508181036000830152610dc181610d85565b9050919050565b610dd18161087d565b82525050565b6000602082019050610dec6000830184610dc8565b92915050565b600081519050610e0181610436565b92915050565b600060208284031215610e1d57610e1c6103fa565b5b6000610e2b84828501610df2565b9150509291505056fea26469706673582212205b9ffddcc62b4d3a18a5aa9b88436739a8643b2f3d5cbaaec12f34031af4eec864736f6c634300081c0033",
  "linkReferences": {},
  "deployedLinkReferences": {}
}