{
  "_format": "hh-sol-artifact-1",
  "contractName": "MultiPoolSwapRouter",
  "sourceName": "contracts/MultiPoolSwapRouter.sol",
  "abi": [
    {
      "inputs": [],
      "stateMutability": "nonpayable",
      "type": "constructor"
    },
    {
      "inputs": [
        {
          "internalType": "contract ILiquidityPool",
          "name": "pool",
          "type": "address"
        }
      ],
      "name": "addPool",
      "outputs": [],
      "stateMutability": "nonpayable",
      "type": "function"
    },
    {
      "inputs": [],
      "name": "owner",
      "outputs": [
        {
          "internalType": "address",
          "name": "",
          "type": "address"
        }
      ],
      "stateMutability": "view",
      "type": "function"
    },
    {
      "inputs": [
        {
          "internalType": "uint256",
          "name": "",
          "type": "uint256"
        }
      ],
      "name": "pools",
      "outputs": [
        {
          "internalType": "contract ILiquidityPool",
          "name": "",
          "type": "address"
        }
      ],
      "stateMutability": "view",
      "type": "function"
    },
    {
      "inputs": [
        {
          "internalType": "address",
          "name": "tokenIn",
          "type": "address"
        },
        {
          "internalType": "address",
          "name": "tokenOut",
          "type": "address"
        },
        {
          "internalType": "uint256",
          "name": "amountIn",
          "type": "uint256"
        },
        {
          "internalType": "uint256",
          "name": "minOut",
          "type": "uint256"
        }
      ],
      "name": "swap",
      "outputs": [],
      "stateMutability": "nonpayable",
      "type": "function"
    }
  ],
  "bytecode": "0x6080604052348015600f57600080fd5b5033600160006101000a81548173ffffffffffffffffffffffffffffffffffffffff021916908373ffffffffffffffffffffffffffffffffffffffff160217905550610b4f806100606000396000f3fe608060405234801561001057600080fd5b506004361061004c5760003560e01c80638da5cb5b14610051578063ac4afa381461006f578063d914cd4b1461009f578063fe029156146100bb575b600080fd5b6100596100d7565b604051610066919061063f565b60405180910390f35b61008960048036038101906100849190610695565b6100fd565b6040516100969190610721565b60405180910390f35b6100b960048036038101906100b4919061077a565b61013c565b005b6100d560048036038101906100d091906107d3565b610232565b005b600160009054906101000a900473ffffffffffffffffffffffffffffffffffffffff1681565b6000818154811061010d57600080fd5b906000526020600020016000915054906101000a900473ffffffffffffffffffffffffffffffffffffffff1681565b600160009054906101000a900473ffffffffffffffffffffffffffffffffffffffff1673ffffffffffffffffffffffffffffffffffffffff163373ffffffffffffffffffffffffffffffffffffffff16146101cc576040517f08c379a00000000000000000000000000000000000000000000000000000000081526004016101c390610897565b60405180910390fd5b6000819080600181540180825580915050600190039060005260206000200160009091909190916101000a81548173ffffffffffffffffffffffffffffffffffffffff021916908373ffffffffffffffffffffffffffffffffffffffff16021790555050565b6000808054905090506000811161027e576040517f08c379a000000000000000000000000000000000000000000000000000000000815260040161027590610903565b60405180910390fd5b60008060005b838110156103685760008082815481106102a1576102a0610923565b5b9060005260206000200160009054906101000a900473ffffffffffffffffffffffffffffffffffffffff1673ffffffffffffffffffffffffffffffffffffffff16634aa066528a8a8a6040518463ffffffff1660e01b815260040161030893929190610961565b602060405180830381865afa158015610325573d6000803e3d6000fd5b505050506040513d601f19601f8201168201806040525081019061034991906109ad565b90508381111561035a578093508192505b508080600101915050610284565b50838210156103ac576040517f08c379a00000000000000000000000000000000000000000000000000000000081526004016103a390610a26565b60405180910390fd5b60008082815481106103c1576103c0610923565b5b9060005260206000200160009054906101000a900473ffffffffffffffffffffffffffffffffffffffff1690508773ffffffffffffffffffffffffffffffffffffffff166323b872dd3330896040518463ffffffff1660e01b815260040161042b93929190610961565b6020604051808303816000875af115801561044a573d6000803e3d6000fd5b505050506040513d601f19601f8201168201806040525081019061046e9190610a7e565b508773ffffffffffffffffffffffffffffffffffffffff1663095ea7b382886040518363ffffffff1660e01b81526004016104aa929190610aab565b6020604051808303816000875af11580156104c9573d6000803e3d6000fd5b505050506040513d601f19601f820116820180604052508101906104ed9190610a7e565b5060008173ffffffffffffffffffffffffffffffffffffffff1663fe0291568a8a8a8a6040518563ffffffff1660e01b815260040161052f9493929190610ad4565b6020604051808303816000875af115801561054e573d6000803e3d6000fd5b505050506040513d601f19601f8201168201806040525081019061057291906109ad565b90508773ffffffffffffffffffffffffffffffffffffffff1663a9059cbb33836040518363ffffffff1660e01b81526004016105af929190610aab565b6020604051808303816000875af11580156105ce573d6000803e3d6000fd5b505050506040513d601f19601f820116820180604052508101906105f29190610a7e565b50505050505050505050565b600073ffffffffffffffffffffffffffffffffffffffff82169050919050565b6000610629826105fe565b9050919050565b6106398161061e565b82525050565b60006020820190506106546000830184610630565b92915050565b600080fd5b6000819050919050565b6106728161065f565b811461067d57600080fd5b50565b60008135905061068f81610669565b92915050565b6000602082840312156106ab576106aa61065a565b5b60006106b984828501610680565b91505092915050565b6000819050919050565b60006106e76106e26106dd846105fe565b6106c2565b6105fe565b9050919050565b60006106f9826106cc565b9050919050565b600061070b826106ee565b9050919050565b61071b81610700565b82525050565b60006020820190506107366000830184610712565b92915050565b60006107478261061e565b9050919050565b6107578161073c565b811461076257600080fd5b50565b6000813590506107748161074e565b92915050565b6000602082840312156107905761078f61065a565b5b600061079e84828501610765565b91505092915050565b6107b08161061e565b81146107bb57600080fd5b50565b6000813590506107cd816107a7565b92915050565b600080600080608085870312156107ed576107ec61065a565b5b60006107fb878288016107be565b945050602061080c878288016107be565b935050604061081d87828801610680565b925050606061082e87828801610680565b91505092959194509250565b600082825260208201905092915050565b7f4e6f74206f776e65720000000000000000000000000000000000000000000000600082015250565b600061088160098361083a565b915061088c8261084b565b602082019050919050565b600060208201905081810360008301526108b081610874565b9050919050565b7f4e6f20706f6f6c73207265676973746572656400000000000000000000000000600082015250565b60006108ed60138361083a565b91506108f8826108b7565b602082019050919050565b6000602082019050818103600083015261091c816108e0565b9050919050565b7f4e487b7100000000000000000000000000000000000000000000000000000000600052603260045260246000fd5b61095b8161065f565b82525050565b60006060820190506109766000830186610630565b6109836020830185610630565b6109906040830184610952565b949350505050565b6000815190506109a781610669565b92915050565b6000602082840312156109c3576109c261065a565b5b60006109d184828501610998565b91505092915050565b7f496e73756666696369656e74206f757470757400000000000000000000000000600082015250565b6000610a1060138361083a565b9150610a1b826109da565b602082019050919050565b60006020820190508181036000830152610a3f81610a03565b9050919050565b60008115159050919050565b610a5b81610a46565b8114610a6657600080fd5b50565b600081519050610a7881610a52565b92915050565b600060208284031215610a9457610a9361065a565b5b6000610aa284828501610a69565b91505092915050565b6000604082019050610ac06000830185610630565b610acd6020830184610952565b9392505050565b6000608082019050610ae96000830187610630565b610af66020830186610630565b610b036040830185610952565b610b106060830184610952565b9594505050505056fea26469706673582212201de447b778fa762962e4dca1058a2d60c3c6d6eb9b2e482adf26f9564c76c9d064736f6c634300081c0033",
  "linkReferences": {},
  "deployedLinkReferences": {}
}