{
  "_format": "hh-sol-artifact-1",
  "contractName": "DynamicSlippageSwapper",
  "sourceName": "contracts/JSONDynamicSlippage.sol",
  "abi": [
    {
      "inputs": [
        {
          "internalType": "contract ISwapRouter",
          "name": "_router",
          "type": "address"
        }
      ],
      "stateMutability": "nonpayable",
      "type": "constructor"
    },
    {
      "inputs": [],
      "name": "router",
      "outputs": [
        {
          "internalType": "contract ISwapRouter",
          "name": "",
          "type": "address"
        }
      ],
      "stateMutability": "view",
      "type": "function"
    },
    {
      "inputs": [
        {
          "internalType": "address",
          "name": "tokenIn",
          "type": "address"
        },
        {
          "internalType": "address",
          "name": "tokenOut",
          "type": "address"
        },
        {
          "internalType": "uint256",
          "name": "amountIn",
          "type": "uint256"
        },
        {
          "components": [
            {
              "internalType": "bytes32[]",
              "name": "merkleProof",
              "type": "bytes32[]"
            },
            {
              "components": [
                {
                  "internalType": "bytes32",
                  "name": "attestationType",
                  "type": "bytes32"
                },
                {
                  "internalType": "bytes32",
                  "name": "sourceId",
                  "type": "bytes32"
                },
                {
                  "internalType": "uint64",
                  "name": "votingRound",
                  "type": "uint64"
                },
                {
                  "internalType": "uint64",
                  "name": "lowestUsedTimestamp",
                  "type": "uint64"
                },
                {
                  "components": [
                    {
                      "internalType": "string",
                      "name": "url",
                      "type": "string"
                    },
                    {
                      "internalType": "string",
                      "name": "postprocessJq",
                      "type": "string"
                    },
                    {
                      "internalType": "string",
                      "name": "abi_signature",
                      "type": "string"
                    }
                  ],
                  "internalType": "struct IJsonApi.RequestBody",
                  "name": "requestBody",
                  "type": "tuple"
                },
                {
                  "components": [
                    {
                      "internalType": "bytes",
                      "name": "abi_encoded_data",
                      "type": "bytes"
                    }
                  ],
                  "internalType": "struct IJsonApi.ResponseBody",
                  "name": "responseBody",
                  "type": "tuple"
                }
              ],
              "internalType": "struct IJsonApi.Response",
              "name": "data",
              "type": "tuple"
            }
          ],
          "internalType": "struct IJsonApi.Proof",
          "name": "data",
          "type": "tuple"
        }
      ],
      "name": "swapWithDynamicSlippage",
      "outputs": [],
      "stateMutability": "nonpayable",
      "type": "function"
    }
  ],
  "bytecode": "0x60a060405234801561001057600080fd5b5060405161100c38038061100c833981810160405281019061003291906100e1565b8073ffffffffffffffffffffffffffffffffffffffff1660808173ffffffffffffffffffffffffffffffffffffffff16815250505061010e565b600080fd5b600073ffffffffffffffffffffffffffffffffffffffff82169050919050565b600061009c82610071565b9050919050565b60006100ae82610091565b9050919050565b6100be816100a3565b81146100c957600080fd5b50565b6000815190506100db816100b5565b92915050565b6000602082840312156100f7576100f661006c565b5b6000610105848285016100cc565b91505092915050565b608051610ed5610137600039600081816101de0152818161026101526102fb0152610ed56000f3fe608060405234801561001057600080fd5b50600436106100365760003560e01c80637c609ffa1461003b578063f887ea4014610057575b600080fd5b61005560048036038101906100509190610498565b610075565b005b61005f6102f9565b60405161006c919061057a565b60405180910390f35b61007e8161031d565b6100bd576040517f08c379a00000000000000000000000000000000000000000000000000000000081526004016100b4906105f2565b60405180910390fd5b60008180602001906100cf9190610621565b8060a001906100de9190610649565b80600001906100ed9190610671565b8101906100fa91906106d4565b9050600061010886866103a7565b905060006127108361271061011d9190610730565b83876101299190610764565b6101339190610764565b61013d91906107d5565b90508673ffffffffffffffffffffffffffffffffffffffff166323b872dd3330886040518463ffffffff1660e01b815260040161017c93929190610824565b6020604051808303816000875af115801561019b573d6000803e3d6000fd5b505050506040513d601f19601f820116820180604052508101906101bf9190610893565b508673ffffffffffffffffffffffffffffffffffffffff1663095ea7b37f0000000000000000000000000000000000000000000000000000000000000000876040518363ffffffff1660e01b815260040161021b9291906108c0565b6020604051808303816000875af115801561023a573d6000803e3d6000fd5b505050506040513d601f19601f8201168201806040525081019061025e9190610893565b507f000000000000000000000000000000000000000000000000000000000000000073ffffffffffffffffffffffffffffffffffffffff1663fe029156888888856040518563ffffffff1660e01b81526004016102be94939291906108e9565b600060405180830381600087803b1580156102d857600080fd5b505af11580156102ec573d6000803e3d6000fd5b5050505050505050505050565b7f000000000000000000000000000000000000000000000000000000000000000081565b60006103276103ba565b73ffffffffffffffffffffffffffffffffffffffff1663d0f18f85836040518263ffffffff1660e01b815260040161035f9190610e7d565b602060405180830381865afa15801561037c573d6000803e3d6000fd5b505050506040513d601f19601f820116820180604052508101906103a09190610893565b9050919050565b6000670de0b6b3a7640000905092915050565b600073206d83e3a24523de1e43ab56ac8f7b9b10f6ab89905090565b600080fd5b600080fd5b600073ffffffffffffffffffffffffffffffffffffffff82169050919050565b600061040b826103e0565b9050919050565b61041b81610400565b811461042657600080fd5b50565b60008135905061043881610412565b92915050565b6000819050919050565b6104518161043e565b811461045c57600080fd5b50565b60008135905061046e81610448565b92915050565b600080fd5b60006040828403121561048f5761048e610474565b5b81905092915050565b600080600080608085870312156104b2576104b16103d6565b5b60006104c087828801610429565b94505060206104d187828801610429565b93505060406104e28782880161045f565b925050606085013567ffffffffffffffff811115610503576105026103db565b5b61050f87828801610479565b91505092959194509250565b6000819050919050565b600061054061053b610536846103e0565b61051b565b6103e0565b9050919050565b600061055282610525565b9050919050565b600061056482610547565b9050919050565b61057481610559565b82525050565b600060208201905061058f600083018461056b565b92915050565b600082825260208201905092915050565b7f426164204a534f4e2070726f6f66000000000000000000000000000000000000600082015250565b60006105dc600e83610595565b91506105e7826105a6565b602082019050919050565b6000602082019050818103600083015261060b816105cf565b9050919050565b600080fd5b600080fd5b600080fd5b60008235600160c00383360303811261063d5761063c610612565b5b80830191505092915050565b60008235600160200383360303811261066557610664610612565b5b80830191505092915050565b6000808335600160200384360303811261068e5761068d610612565b5b80840192508235915067ffffffffffffffff8211156106b0576106af610617565b5b6020830192506001820236038313156106cc576106cb61061c565b5b509250929050565b6000602082840312156106ea576106e96103d6565b5b60006106f88482850161045f565b91505092915050565b7f4e487b7100000000000000000000000000000000000000000000000000000000600052601160045260246000fd5b600061073b8261043e565b91506107468361043e565b925082820390508181111561075e5761075d610701565b5b92915050565b600061076f8261043e565b915061077a8361043e565b92508282026107888161043e565b9150828204841483151761079f5761079e610701565b5b5092915050565b7f4e487b7100000000000000000000000000000000000000000000000000000000600052601260045260246000fd5b60006107e08261043e565b91506107eb8361043e565b9250826107fb576107fa6107a6565b5b828204905092915050565b61080f81610400565b82525050565b61081e8161043e565b82525050565b60006060820190506108396000830186610806565b6108466020830185610806565b6108536040830184610815565b949350505050565b60008115159050919050565b6108708161085b565b811461087b57600080fd5b50565b60008151905061088d81610867565b92915050565b6000602082840312156108a9576108a86103d6565b5b60006108b78482850161087e565b91505092915050565b60006040820190506108d56000830185610806565b6108e26020830184610815565b9392505050565b60006080820190506108fe6000830187610806565b61090b6020830186610806565b6109186040830185610815565b6109256060830184610815565b95945050505050565b600080fd5b600080fd5b600080fd5b6000808335600160200384360303811261095a57610959610938565b5b83810192508235915060208301925067ffffffffffffffff8211156109825761098161092e565b5b60208202360383131561099857610997610933565b5b509250929050565b600082825260208201905092915050565b600080fd5b82818337505050565b60006109cb83856109a0565b93507f07ffffffffffffffffffffffffffffffffffffffffffffffffffffffffffffff8311156109fe576109fd6109b1565b5b602083029250610a0f8385846109b6565b82840190509392505050565b60008235600160c003833603038112610a3757610a36610938565b5b82810191505092915050565b6000819050919050565b610a5681610a43565b8114610a6157600080fd5b50565b600081359050610a7381610a4d565b92915050565b6000610a886020840184610a64565b905092915050565b610a9981610a43565b82525050565b600067ffffffffffffffff82169050919050565b610abc81610a9f565b8114610ac757600080fd5b50565b600081359050610ad981610ab3565b92915050565b6000610aee6020840184610aca565b905092915050565b610aff81610a9f565b82525050565b600082356001606003833603038112610b2157610b20610938565b5b82810191505092915050565b60008083356001602003843603038112610b4a57610b49610938565b5b83810192508235915060208301925067ffffffffffffffff821115610b7257610b7161092e565b5b600182023603831315610b8857610b87610933565b5b509250929050565b600082825260208201905092915050565b82818337600083830152505050565b6000601f19601f8301169050919050565b6000610bcd8385610b90565b9350610bda838584610ba1565b610be383610bb0565b840190509392505050565b600060608301610c016000840184610b2d565b8583036000870152610c14838284610bc1565b92505050610c256020840184610b2d565b8583036020870152610c38838284610bc1565b92505050610c496040840184610b2d565b8583036040870152610c5c838284610bc1565b925050508091505092915050565b600082356001602003833603038112610c8657610c85610938565b5b82810191505092915050565b60008083356001602003843603038112610caf57610cae610938565b5b83810192508235915060208301925067ffffffffffffffff821115610cd757610cd661092e565b5b600182023603831315610ced57610cec610933565b5b509250929050565b600082825260208201905092915050565b6000610d128385610cf5565b9350610d1f838584610ba1565b610d2883610bb0565b840190509392505050565b600060208301610d466000840184610c92565b8583036000870152610d59838284610d06565b925050508091505092915050565b600060c08301610d7a6000840184610a79565b610d876000860182610a90565b50610d956020840184610a79565b610da26020860182610a90565b50610db06040840184610adf565b610dbd6040860182610af6565b50610dcb6060840184610adf565b610dd86060860182610af6565b50610de66080840184610b05565b8482036080860152610df88282610bee565b915050610e0860a0840184610c6a565b84820360a0860152610e1a8282610d33565b9150508091505092915050565b600060408301610e3a600084018461093d565b8583036000870152610e4d8382846109bf565b92505050610e5e6020840184610a1b565b8482036020860152610e708282610d67565b9150508091505092915050565b60006020820190508181036000830152610e978184610e27565b90509291505056fea26469706673582212207a85117b1863f640f2f212b7b5080e89d9a880bedf00d307a349e4010760832364736f6c634300081c0033",
  "linkReferences": {},
  "deployedLinkReferences": {}
}